:0400000080311E2805
:100008007E14803100308600003087002E000F1EDD
:100018000E280F281528740822009A00F4012E00D3
:1000280019128F1E182819281C2822001908F300F5
:100038007E10090080312028F301F4017E10200091
:100048008031262822009F151E159C0144309B00F4
:100058009E161E129D1710303E00A6000B178B1718
:10006800F101F2015B282E000F1E3B283C284A288C
:1000780071087204031D412842284A28FE30F40002
:1000880019160130F1000030F2005B280F1E4D28D0
:100098004E285B2871037204031D532854285B28DB
:1000A8001930F40019160230F1000030F20072081D
:1000B800803AF00080307002031D6428023071021B
:0E00C800031C672868283728342880311E283A
:020000040001F9
:02000E008F3F22
:020012009F3F0E
:00000001FF
