:0400000080311E2805
:100008007E14803100308600003087002E000F1EDD
:100018000E280F2815287A0822009A00FA012E00C7
:1000280019128F1E182819281C2822001908F900EF
:100038007E100900803120287B30840080308500C4
:100048001200A0001200A1001200A2001200A300DA
:100058001200A4001200A500F901FA017E10200088
:100068008031642820308600003087007130840099
:10007800003085000630F00016001A00F00B40280A
:10008800F701F8012E000F1E4A284B28462877084A
:10009800713E860087010108FA0019160130F7073A
:1000A8000030F83D7808803AF00080307002031D77
:1000B8005F2806307702031C622863284628080058
:1000C80022009F151E159C0144309B009E161E128F
:1000D8009D171D1610303E00A6000B178B172E001B
:1000E8009916803136208031782880311E28FE34D8
:0A00F80019340134053400340034DB
:020000040001F9
:02000E008F3F22
:020012009F3F0E
:00000001FF
